:100000000B308A00022B0000FF00030E8301A100C9
:100010000A08A0008A010408A2007708A300780853
:10002000A4007908A5007A08A60003170D08031399
:10003000A70003170F080313A80003170C080313E6
:10004000A90003170E080313AA00831383128C3030
:100050008400801E2D288C1A54288C308400001CAB
:1000600033280C185728220884002308F700240896
:10007000F8002508F9002608FA00270803178D0064
:100080000313280803178F000313290803178C0094
:1000900003132A0803178E00031320088A00210E79
:1000A0008300FF0E7F0E09008A110A1264288A114C
:1000B0000A125A280130B3070318B40A8E018F01BF
:1000C0000C108A110A1233281A08B70037081F3C8F
:1000D000031878283708263C031D70280130B60025
:1000E0003830350784008313370880000130B507A6
:1000F000360B8C2801303502383E84008313800192
:10010000B5013808233C031D89283030B800013080
:10011000B2000130B100B6018C128A110A123328E4
:10012000D2326132F910000020102010201020106F
:1001300020100001D02B4D1D251732330000D4397B
:10014000E136701D251733330001D2326132F910C8
:100150000000C1308400831300080319BC28063056
:10016000F800F701F70BB228F80BB1287B30F70045
:10017000F70BB828800BAF28080083164818C4284E
:1001800083120812C62883168312081683160812D3
:10019000C818CE2883128812D02883168312881696
:1001A000831688124819D82883120813DA28831670
:1001B0008312081783160813C819E22883128813BC
:1001C000E42883168312881783168813000083128D
:1001D0008815831688110230F700F70BED28F028F8
:1001E0000000831288118316881183120800831679
:1001F000C901081600308312081A01308316C90499
:10020000881600308312881A0130F7000310F70DAA
:1002100077088316C904081700308312081B0130C1
:10022000F700F70DF70DFC30F70577088316C904C2
:10023000881700308312881B0130F700F70DF70D87
:10024000F70DF830F70577088316C9044908F80058
:1002500083120800831688118810081183128810F1
:100260008316881008168816081788178312081531
:100270008316081100008312881583168811000068
:100280008312F72078088316C8008312881183161A
:100290008811000083128815831688114F29502970
:1002A00000008312F72078088316C7008312881194
:1002B000831688110812881208138813480EF70055
:1002C000F030F70577084704F8007808C700C71B27
:1002D0003229C508031D70298312881072298316DC
:1002E0008312881483168810000083120811831665
:1002F000081100008312881183168811460EC7006A
:100300000F30C7054708C8008312BD208316460872
:100310000F39C700C8008312BD200800283083169B
:10032000B4000C30B5000130B6000630B7008312BF
:1003300088118316881183128810831688108312FF
:1003400008118316081108128812081388138811DF
:10035000881008110F30C1008312A92001308316C4
:10036000B3003308033C031CC1290330C8008312C7
:10037000BD2005308316C1008312A9208316B30A5D
:10038000B1290230C8008312BD2005308316C10098
:100390008312A9208316B3013308033C031CDE2912
:1003A000B4303307840083130008B800C50138084F
:1003B000C60083122A218316B30ACC2983128A1518
:1003C0000A121F2B831618158130990018128312F8
:1003D000981783168C1683120B178B171816831613
:1003E000981683128A150A12222B8B170B17831665
:1003F0000C1483128A150A12252B8316420B012A2C
:10040000042A4030C300052AC30101304102C3075A
:1004100043088038C400C5014408C60083122A215D
:10042000080083164008073A83120319212A0B3A61
:100430000319282A063A0319342A023A03193C2AD6
:10044000432A01308316C100C2008312FD214A2ACB
:100450008316C5010130C60083122A21023083169B
:10046000C1008312A9204A2A01308316C10002303C
:10047000C2008312FD214A2A8316C5011030C6002E
:1004800083122A214A2A01308316C5004008C6007B
:1004900083122A2108000B088316B30083128B13E2
:1004A000831603178C170C14000000000313B31FEE
:1004B0005C2A83128B178316831203170C087F396B
:1004C0000319BD2A83160313B300831203170D0803
:1004D00083160313B400831203170F088316031344
:1004E000B5003308C000831211228316340883122A
:1004F00003178D00831603133508831203178F002B
:1005000003130B088316B60083128B13831603178D
:100510008C170C14000000000313B61F922A8312DC
:100520008B178316831203170C0D0E0D7F390319D9
:10053000BD2A83160313B300831203170D08831615
:100540000313B400831203170F0883160313B500B7
:100550003308C00083121122831634088312031754
:100560008D00831603133508831203178F008D0A3D
:1005700003198F0A03134B2A03170313080083166A
:10058000B801B6010A30B700B50133083404031DC1
:10059000CC2A0030F800BF2B3808B80A3307840093
:1005A0008313341883170008B90039082D3C031D44
:1005B000E52A0130B6003808B80A330784008313EF
:1005C000341883170008B900F22A39082B3C031DA0
:1005D000F22A3808B80A33078400831334188317C3
:1005E0000008B90039082F3C0318B52B3908393CED
:1005F000031CB52B3908303C031D1E2B380833076C
:1006000084008313341883170008783C0319122BD5
:100610003808330784008313341883170008583CC4
:10062000031D1E2B1030B700B80A3808B80A33076C
:1006300084008313341883170008B90037080A3C74
:10064000031D632B39082F3C0318622B3908393CF2
:10065000031C622B0A30BA003508BB00F701F80111
:100660003A0803103B18F707F70CF80CBB18F7070C
:10067000F70CF80C3B19F707F70CF80CBB19F70748
:10068000F70CF80C3B1AF707F70CF80CBB1AF70736
:10069000F70CF80C3B1BF707F70CF80CBB1BF70724
:1006A000F70CF80C7808BA00303039023A07B50078
:1006B0003808B80A330784008313341883170008F6
:1006C000B900222BB52B3708103C031DB52B390878
:1006D000603C0318722B39087A3C031C722B3908D2
:1006E000DF39732B3908B90039082F3C03187C2BEC
:1006F0003908393C0318842B3908403C0318B52BC2
:100700003908463C031CB52B39082F3C0318952BA0
:100710003908393C031C952B350EBA00F030BA0568
:10072000303039023A07B5009E2B350EBA00F03052
:10073000BA05413039020A3E3A07B5003808B80A0E
:10074000330784008313341883170008B90039086D
:10075000603C0318B22B39087A3C031CB22B3908D1
:10076000DF39B32B3908B900742B360BBD2B370892
:100770000A3C031DBD2BB509B50A3508F8008312E4
:100780008A150A128C2B10308316B700F701FA0174
:10079000B40CB30C031CD22B3508F7070318FA0A64
:1007A0003608FA07FA0CF70CF90CF80CB70BC82B43
:1007B00083128A150A129D2B8316420803194D2CA9
:1007C000CA00460803194D2CCA070318EE2B7F30C8
:1007D000CA02031C4D2C03194D2CF22B8130CA0781
:1007E00003184D2C4A08F700F801F901FA014308F3
:1007F000CE00CE174408CD004508CC001830CA0002
:10080000CB014C1C1B2C4908FA07031C0D2CF90AC0
:10081000031D0D2CF80A0319CB174808F907031C10
:10082000142CF80A0319CB174708C400C41744084E
:10083000F8070318CB17CB0DF80CF90CFA0CCE0CFB
:10084000CD0CCC0C0310CA0B002C0130F707031899
:100850004D2CF81B322CCE0DFA0DF90DF80DF703C7
:1008600003194D2CCE1F432CFA0A031D432CF90A01
:10087000031D432CF80A031D432CF80CF90CFA0C49
:10088000F70A03194D2C4308CB004708CB06CB1FB2
:100890004B2CF817512CF813512CF701F801F901E2
:1008A000FA01831208008E30F70083164708F8001B
:1008B0004608F900FA01F808031D682C7908F800C9
:1008C000F9010830F702F808031D682CF701702CB5
:1008D0000310F81B6F2CF90DF80DF703682CF813B3
:1008E00083120800831646080319382DD2004A08DF
:1008F0000319382DD202031C822C7F30D207031833
:10090000382D882C8130D202031C382D0319382D44
:100910005208F700F801F901FA01D1014708D000A7
:10092000D0174808CF004908CE001930D2004D0832
:10093000CE020318AB2C0130CF020318AB2CD0022F
:100940000318AB2CD1020318AB2CD10AD00ACF0A62
:100950004D08CE07DD2C4C08CF020318C62C013001
:10096000D0020318C62CD1020318C62CD10AD00A13
:100970004C08CF074D08CE07031CDD2CCF0A031D02
:10098000DD2CD00A031DDD2CD10ADD2C4B0880386C
:10099000D0020318DC2C0130D1020318DC2CD10A60
:1009A0004B088038D0074C08CF07031CBA2CD00A5C
:1009B000031DBA2CD10ABA2C7A14D20BE02CEB2CE2
:1009C0000310CE0DCF0DD00DD10D0310FA0DF90D82
:1009D000F80DD30D972C531CF32C0310F80CF90CC5
:1009E000FA0CD30CF62CF7030319382DD31B1F2D4B
:1009F0000310CE0DCF0DD00DD10D4D08CE02031832
:100A00000B2D0130CF0203180B2DD00203180B2D34
:100A1000D102031C2E2D4C08CF020318162D0130D5
:100A2000D0020318162DD102031C2E2D4B0880383E
:100A3000D00203181F2D0130D102031C2E2DFA0AFB
:100A4000031D2E2DF90A031D2E2DF80A031D2E2D30
:100A5000F70A0319382DF80CF90CFA0C4708D200E4
:100A60004B08D206D21F362DF8173C2DF8133C2D1B
:100A7000F701F801F901FA01831208008030831CA4
:100A8000442D8316CB0683128316D001D10147086B
:100A9000CF004B08CF0646080319322ECE00F700D0
:100AA0004A0803193B2ECE020319D72D031C952D9E
:100AB0004B08D400D4174C08D3004D08D200D10104
:100AC0000310D40CD30CD20CD10CCE0B5F2DCF1F46
:100AD0006C2D50144F2E50104E105016C9308400FB
:100AE0008313642E5012CF1B7F2D4E1C8A2DD40CE5
:100AF000D30CD20CD10CF70A03194A2E8A2DD41B21
:100B00008D2D0310D10DD20DD30DD40DF703031984
:100B10004A2E7F2D5017F72D50134708CF00CF1FB7
:100B2000932DD417432ED413432E4A08CE00F7003A
:100B30004608CE024708D400D4174808D300490815
:100B4000D200D1010310D40CD30CD20CD10CCE0B9B
:100B5000A12DCF1FAE2DD0144F2ED0104E10D01679
:100B6000CD3084008313642ED012CF1BC12D4E1CB8
:100B7000CC2DD40CD30CD20CD10CF70A03194A2E6D
:100B8000CC2DD41BCF2D0310D10DD20DD30DD40DF0
:100B9000F70303194A2EC12DD017F72DD0134B0898
:100BA000CF00CF1FD52DD417432ED413432E4B087F
:100BB000D400D4174C08D3004D08D200CF1FE42D29
:100BC000D41350154F2E5011D1014E10C93084004E
:100BD0008313642ECF1B0D2E4708CF004E1CF72D1C
:100BE000D40CD30CD20CD10CF70A03194A2ED11F06
:100BF000082ED20A031D082ED30A031D082ED40A7C
:100C0000031D082ED40CD30CD20CF70A03194A2E5C
:100C1000501B8C2DD01BCE2D2C2E8030D406D41FF3
:100C2000152E4F2E4B08CF00222E4708CF00D40898
:100C3000031D222ED308031D222ED208031D222EAF
:100C4000F701432ED41B2C2E0310D10DD20DD30D42
:100C5000D40DF70B222E4A2ECF1F302ED417432E41
:100C6000D413432E4A08F7004B08D4004C08D30095
:100C70004D08D200432E4608F7004708D400480824
:100C8000D3004908D2005408F8005308F90052086C
:100C9000FA00822EF701F801F901FA01822ED10142
:100CA000D209D309D409D109D10A031D5D2ED20A74
:100CB000031D5D2ED30A0319D40A50186B2DD018CA
:100CC000AD2D5019E32D122E0008D207031C6E2EF5
:100CD000D30A031D6E2ED40A03194E148403000890
:100CE000D307031C762ED40A03194E14840300087C
:100CF000801F803AD40703184E14501A722DD01A50
:100D0000B42DEA2D831208008316BA01B901B80187
:100D10007F30B700BE01BD01BC01BB013F14BF1055
:100D20003F11C10133083404031D9B2EF701F80164
:100D3000F901FA01B62F4108C10A33078400831371
:100D4000341883170008C000C0080319722F3F1C15
:100D5000BB2E4008203C0319BB2E3F1040082B3C03
:100D6000031DB52EBF10682FBB2E40082D3C031D60
:100D7000BB2EBF14682F3F18C52E40082E3C031D04
:100D8000C52E3F19C52E3F15682F3F18662F400806
:100D90002F3C0318662F4008393C031C662F303067
:100DA000C0023F1D2A2F3A08C5003908C400380880
:100DB000C3003708C200C901C8012030C700823013
:100DC000C6008312DC237A088316BA007908B900BA
:100DD0007808B8007708B700C7014008C60083123A
:100DE00053247A088316C5007908C4007808C30024
:100DF0007708C2004508C9004408C8004308C70076
:100E00004208C6003A08CD003908CC003808CB00AB
:100E10003708CA0083127224831083163E08C90063
:100E20003D08C8003C08C7003B08C6007A08CD0052
:100E30007908CC007808CB007708CA0083123E25D9
:100E40007A088316BE007908BD007808BC007708D0
:100E5000BB00652FC501C4012030C3008230C20031
:100E60003E08C9003D08C8003C08C7003B08C60052
:100E70008312DC237A088316C5007908C400780839
:100E8000C3007708C200C7014008C600831253247C
:100E9000831083164508C9004408C8004308C700EA
:100EA0004208C6007A08CD007908CC007808CB004B
:100EB0007708CA0083123E257A088316BE00790897
:100EC000BD007808BC007708BB00682F3F1C722F5C
:100ED0004108C10A330784008313341883170008BC
:100EE000C000A42EBF1C8D2FC501C4018030C300DB
:100EF0007F30C2003E08C9003D08C8003C08C7005A
:100F00003B08C6008312DC237A088316BE007908EA
:100F1000BD007808BC007708BB003508360403190B
:100F2000AE2FC1080319A32FC10335088400831312
:100F300036188317410833078000840A340880007C
:100F40000318800AAE2F35088400831336188317E0
:100F5000840A340880008403330880003B08F700CB
:100F60003C08F8003D08F9003E08FA00831208002A
:100F700083163408BB003808BB06BB1FC42F0311FF
:100F80000310B41B0314F72F3408BB003708BC0050
:100F90003308BC020319D22FBB1FF72F0308013AF5
:100FA0008300F72F3808BC003408BC020319DE2F79
:100FB000BB1FF72F0308013A8300F72F3908BC0045
:100FC0003508BC020319EA2FBB1FF72F0308013AAB
:100FD0008300F72F3A08BC003608BC020319F62F2D
:100FE000BB1FF72F0308013A8300F72F031083126A
:100FF00008008316981CFA2F3708831299000800FE
:1010000083164008B63CC000FA014108C400C1176D
:101010000310C10CC20CC30CFA0CF90CF80CF70C41
:10102000C00B0828C41F1F28F709F809F909FA0995
:10103000F70A0319F80A0319F90A0319FA0A8312BD
:10104000080083182628C83084008313F701F801AC
:10105000F901FA018316C801C901CA01CB01470889
:10106000460445044404031965282030CC000310CD
:10107000C00DC10DC20DC30DC80DC90DCA0DCB0DDC
:1010800047084B02031D4E2846084A02031D4E28FE
:1010900045084902031D4E2844084802031C5F28E6
:1010A0004408C8024508031C450FC9024608031C32
:1010B000460FCA024708031C470FCB020314F70D63
:1010C000F80DF90DFA0DCC0B372848088000840A7A
:1010D00049088000840A4A088000840A4B0880007E
:1010E000831208004408840083134518831783166D
:1010F00040088000840A80018312C40A0319C50ACB
:10110000080004088316B8003708BA000319A52898
:101110003608C5003508C4003408C3003308C200CF
:10112000C901C8012030C7008230C6008A1183126D
:10113000DC238A157A088316B6007908B50078088A
:10114000B4007708B300BA0B88283608C300350806
:10115000C2003408C1003308C000831200207A089E
:101160008316B6007908B5007808B4007708B30094
:10117000B61FC728B803B816B309B409B509B6092C
:10118000B30A0319B40A0319B50A0319B60A3B30A6
:10119000BF009A30BE00CA30BD00BC010A30BA00A0
:1011A00037080319B80A8314B33084008313360850
:1011B000C3003508C2003408C1003308C0003F082E
:1011C000C7003E08C6003D08C5003C08C4008312A5
:1011D00021207808F708031D04298316370A3A02EC
:1011E000031DF428831204293808031907290F392D
:1011F0003A020319FD2803183F29B81B3F29381B61
:10120000072920303929831220308316B805B81EEB
:101210001729B8123708031DB8037708B8002D3016
:10122000C0008312722083163808F700B80137080F
:101230003A02031D27297708B8002E30C000831218
:10124000722083163808F7002030B805003030309F
:10125000B81E3929B8123708031DB8037708B8003B
:101260002D30C0008312722083163808F700B801B1
:101270003030F7077708C00083127220831683107E
:101280003F08C3003E08C2003D08C1003C08C00042
:10129000C701C601C5010A30C400831221207A08A3
:1012A0008316BF007908BE007808BD007708BC002F
:1012B000BA0BD32883128A150A12E92D8316B501B9
:1012C0003508330784008313341883178008031903
:1012D00079293508330784008313341883170008ED
:1012E000B600B7008A118312F9278A158316B50A4A
:1012F00060290D30B7008A118312F9278A158A15E3
:101300000A12EF2DB630F700FA01F901F801831641
:101310003308340435043604031D9029F7019D2950
:101320000310F81B9C29B30DB40DB50DB60DFA0DC5
:10133000F90DF80DF70B9029F81383128A150A128C
:101340002A2E0B088316B40083128B1383160317FF
:101350008C170C14000000000313B41FB229831271
:101360008B1783160318ED29831203170C087F3996
:1013700083160313B400831203170D088316031397
:10138000B500831203170F0883160313B600340841
:10139000C0008A11831211228A1583163508831220
:1013A00003178D00831603133608831203178F006B
:1013B00003130B088316B70083128B1383160317CE
:1013C0008C170C14000000000313B71FEA298312C6
:1013D0008B178316B30BED291D2A831203170C0DEF
:1013E0000E0D7F3983160313B400831203170D0803
:1013F00083160313B500831203170F088316031314
:10140000B6003408C0008A11831211228A1583168F
:101410003508831203178D008316031336088312D1
:1014200003178F008D0A03198F0A03108316031305
:10143000B30B1B2A1D2A8312A1298312080004085A
:101440008316B8003708BA000319432A3608C500C6
:101450003508C4003408C3003308C200C901C801FC
:101460002030C7008230C6008A118312DC238A151F
:101470007A088316B6007908B5007808B4007708B2
:10148000B300BA0B262A3608C3003508C200340858
:10149000C1003308C000831200207A088316B6000A
:1014A0007908B5007808B4007708B300B61F652A3C
:1014B000B803B816B309B409B509B609B30A0319D4
:1014C000B40A0319B50A0319B60A3B30BF009A30B3
:1014D000BE00CA30BD00BC010A30BA00370803198B
:1014E000B80A8314B330840083133608C300350868
:1014F000C2003408C1003308C0003F08C7003E08DE
:10150000C6003D08C5003C08C400831221207808AD
:10151000F708031DA22A8316370A3A02031D922AEE
:101520008312A22A38080319A52A0F393A0203198F
:101530009B2A0318E52AB81BE52A381BA52A203068
:10154000DD2A831220308316B805B81EB72AB812D8
:101550003708031DB8037708B8002D30C0008A1182
:10156000831211228A1583163808F700B80137084C
:101570003A02031DC92A7708B8002E30C0008A112C
:10158000831211228A1583163808F7002030B80517
:1015900000303030B81EDD2AB8123708031DB803FA
:1015A0007708B8002D30C0008A11831211228A15E5
:1015B00083163808F700B8013030F7077708C00005
:1015C0008A11831211228A15831683103F08C300E3
:1015D0003E08C2003D08C1003C08C000C701C6016A
:1015E000C5010A30C400831221207A088316BF0087
:1015F0007908BE007808BD007708BC00BA0B712AD4
:101600008312080003081F398300B101B201B4013D
:10161000B301B501B601C501C40183161F149F149F
:101620001F159F1107309C0083138312AB01AC017F
:10163000C0308316870088018A1183128E298A158B
:101640008A11E2298A158A11F5298A150C30831628
:10165000C0008A11831211228A1501308316C1003D
:10166000C2008A118312FD218A15903003178D0064
:1016700000308F008A1103134B228A15C901C8015B
:10168000C7017E30C6006630CD00CC00CB007E3076
:10169000CA00A630D1009B30D0004430CF00773054
:1016A000CE000A30D500D730D4002330D3007830B4
:1016B000D200D901D801D701D601DD01DC01DB015F
:1016C000DA01E101E001DF01DE01E501E401E3010E
:1016D000E201ED01EC01EB01EA01F101F001EF01A2
:1016E000EE01F501F401F301F201FE01FD01FC013F
:1016F000FB018316AC01AB01AE010A30AD008312D1
:10170000310BA72BB208031DA72B8316B401383069
:10171000B3008A118312BF2A8A15FA01780883164A
:10172000AD007A08AE002E08B4002D08B300B60153
:101730006430B5008A118312C32B8A157908831689
:10174000AE007808AD008312B1010130B200310B58
:10175000C02B320BC02B8316B4013830B300B60156
:10176000B5018A11831284268A157A08D90079086E
:10177000D8007808D7007708D600B1010230B2004F
:10178000310BC92D3208023C031DC92D8E018F017A
:10179000B401B30110148316B4013830B300B6019C
:1017A000B5018A11831284268A157A08E500790822
:1017B000E4007808E3007708E20001308316AB0705
:1017C0000318AC0A02308312B1008314590883163F
:1017D000C900831258088316C8008312570883165D
:1017E000C700831256088316C60083126508831645
:1017F000CD00831264088316CC008312630883161D
:10180000CB00831262088316CA008A1183123E2518
:101810008A157A08F5007908F4007808F30077084B
:10182000F200831475088316C9007408C800730891
:10183000C7007208C6007108CD007008CC00831282
:101840006F088316CB0083126E088316CA008A11B4
:1018500083123E258A157A088316B6007908B500EA
:101860007808B4007708B3003608C9003508C80006
:101870003408C7003308C600831255088316CD000C
:10188000831254088316CC00831253088316CB00AE
:10189000831252088316CA008A11831272248A1591
:1018A0007A08FE007908FD007808FC007708FB0044
:1018B00075088316C5007408C4007308C300720855
:1018C000C200831255088316C90083125408831678
:1018D000C800831253088316C70083125208831668
:1018E000C6008A118312DC238A1583106D088316C3
:1018F000C90083126C088316C80083126B08831614
:10190000C70083126A088316C6007A08CD007908DA
:10191000CC007808CB007708CA008A1183123E25D4
:101920008A157A08ED007908EC007808EB00770852
:10193000EA007508F1007408F0007308EF007208FF
:10194000EE0049088316C500831248088316C400B8
:10195000831247088316C300831246088316C20009
:101960007508C9007408C8007308C7007208C6006B
:101970008A118312DC238A157A088316B600790847
:10198000B5007808B4007708B30083124D088316B9
:10199000C50083124C088316C40083124B088316BB
:1019A000C30083124A088316C20083126D0883168F
:1019B000C90083126C088316C80083126B08831653
:1019C000C70083126A088316C6008A118312DC23BB
:1019D0008A15831083163608C9003508C8003408F4
:1019E000C7003308C6007A08CD007908CC00780813
:1019F000CB007708CA008A1183123E258A157A081F
:101A00008316B6007908B5007808B4007708B300EB
:101A1000831251088316C500831250088316C40030
:101A200083124F088316C30083124E088316C20028
:101A30007E08C9007D08C8007C08C7007B08C60076
:101A40008A118312DC238A15831083163608C90095
:101A50003508C8003408C7003308C6007A08CD002E
:101A60007908CC007808CB007708CA008A11831265
:101A70003E258A157A08DD007908DC007808DB004D
:101A80007708DA008316C501C030C4007F30C30078
:101A90008830C20083125D088316C90083125C0877
:101AA0008316C80083125B088316C70083125A0886
:101AB0008316C6008A118312DC238A157A088316DE
:101AC000B6007908B5007808B4007708B300360886
:101AD000C9003508C8003408C7003308C600CD0166
:101AE000CC014030CB008230CA008A1183127224AC
:101AF0008A157A08E1007908E0007808DF007708A5
:101B0000DE008316B601C030B5007F30B4008830E7
:101B1000B300831261088316BA008312600883162B
:101B2000B90083125F088316B80083125E0883161B
:101B3000B7008A118312B8278A15031CA62DE1016C
:101B4000C030E0007F30DF008830DE00610883169F
:101B5000B600831260088316B50083125F088316EF
:101B6000B40083125E088316B300BA01C030B90016
:101B7000FF30B8008830B7008A118312B8278A1561
:101B8000031CC92DE101C030E000FF30DF008830C8
:101B9000DE003108023C031DC62E3208023C031D44
:101BA000C62EC501A030C4008930840061088316A8
:101BB000B600831260088316B50083125F0883168F
:101BC000B40083125E088316B3000330B70083129B
:101BD00081288316B401A030B30083125E29B101BD
:101BE00010108316B40183120F088316B300B400DB
:101BF000B30183120E088316B30483123308F7006F
:101C00003408F800F901FA013408FA003308F90041
:101C1000F701F801770883163307AF003408B000E6
:101C200078080318780FB0077908B100003003185E
:101C30000130B1077A08B200003003180130B20752
:101C40003208B6003108B5003008B4002F08B300E0
:101C5000831282297A088316C5007908C40078089F
:101C6000C3007708C200C901C801C7017F30C600A0
:101C70008A118312DC238A157A088316B600790844
:101C8000B5007808B4007708B3003608C9003508F5
:101C9000C8003408C7003308C6008030CD00963035
:101CA000CC001830CB009530CA008A118312722400
:101CB0008A157A08E9007908E8007808E7007708CB
:101CC000E60005308316C1000130C2008A1183127C
:101CD000FD218A15943003178D0000308F008A1182
:101CE00003134B228A1501308316C100C2008A11EA
:101CF0008312FD218A159A3003178D0000308F0062
:101D00000310043083160313B3008312A12189301A
:101D1000840061088316B600831260088316B5003C
:101D200083125F088316B40083125E088316B30023
:101D30000230B70083121F2201308316C100023027
:101D4000C2008A118312FD218A159F3003178D006E
:101D500000308F000310063083160313B300831284
:101D6000A1218930840069088316B60083126808AF
:101D70008316B500831267088316B40083126608C1
:101D80008316B3000330B70083121F2283162D0879
:101D90002B02031D062F2E082C02031D062F0C30CC
:101DA000C0008A11831211228A1501308316C100E6
:101DB000C2008A118312FD218A15A53003178D00F8
:101DC00000308F008A1103134B228A15D901D801E4
:101DD000D701D601DD01DC01DB01DA01E501E40117
:101DE000E301E201ED01EC01EB01EA01F101F00197
:101DF000EF01EE01F501F401F301F201FE01FD0135
:101E0000FC01FB01B2018316AC01AB017F2B630027
:02400E00333F3E
:00000001FF
;PIC16F877A
;CRC=3403  CREATED="20-May-24 00:41"
