:100000000A308A00762A0000FF00030E8301A10057
:100010000A08A0008A010408A2007708A300780853
:10002000A4007908A5007A08A60003170D08031399
:10003000A70003170F080313A80003170C080313E6
:10004000A90003170E080313AA00831383128C3030
:100050008400801E2D288C1A4E2822088400230834
:10006000F7002408F8002508F9002608FA002708F8
:1000700003178D000313280803178F0003132908A3
:1000800003178C0003132A0803178E00031320089C
:100090008A00210E8300FF0E7F0E09008A110A12CA
:1000A00051283330840083138403840A8C1E56281D
:1000B0001A0880000D300002031D55288001330806
:1000C000233C031D67283030B3000130B2000130FB
:1000D000B1008C128A110A122D28D2326132F91025
:1000E0000000D024441D251733330000D232613282
:1000F000F9100000AE3084008313000803198D2826
:100100000630F800F701F70B8328F80B82287B30C4
:10011000F700F70B8928800B802808008316351814
:1001200095288312081297288316831208168316BF
:100130000812B5189F2883128812A12883168312EB
:100140008816831688123519A92883120813AB283C
:1001500083168312081783160813B519B328831260
:100160008813B52883168312881783168813000016
:1001700083128815831688110230F700F70BBE280A
:10018000C128000083128811831688118312080089
:100190008316B601081600308312081A0130831640
:1001A000B604881600308312881A0130F700031055
:1001B000F70D77088316B604081700308312081B62
:1001C0000130F700F70DF70DFC30F70577088316BF
:1001D000B604881700308312881B0130F700F70D32
:1001E000F70DF70DF830F70577088316B6043608D3
:1001F000F8008312080083168811881008118312F2
:100200008810831688100816881608178817831216
:1002100008158316081100008312881583168811AB
:1002200000008312C82078088316B5008312881155
:1002300083168811000083128815831688112029DF
:10024000212900008312C82078088316B400831285
:100250008811831688110812881208138813350E26
:10026000F700F030F70577083404F8007808B40098
:10027000B41B0329B208031D4129831288104329A6
:1002800083168312881483168810000083120811C5
:100290008316081100008312881183168811330E0B
:1002A000B4000F30B4053408B50083128E208316D5
:1002B00033080F39B400B50083128E2008002830AF
:1002C0008316A1000C30A2000130A3000630A40068
:1002D0008312881183168811831288108316881060
:1002E0008312081183160811081288120813881344
:1002F0008811881008110F30AE0083127A20013067
:100300008316A0002008033C031C92290330B5008B
:1003100083128E2005308316AE0083127A20831656
:10032000A00A82290230B50083128E200530831680
:10033000AE0083127A208316A0012008033C031C20
:10034000AF29A1302007840083130008A500B20163
:100350002508B3008312FB208316A00A9D2983126F
:100360008A150A12942A83162F0BB729BA2940300E
:10037000B000BB29B00101302E02B0073008803830
:10038000B100B2013108B3008312FB2008008316CC
:100390002D08073A83120319D7290B3A0319DE29CE
:1003A000063A0319EA29023A0319F229F929013018
:1003B0008316AE00AF008312B321002A8316B20168
:1003C0000130B3008312FB2002308316AE0083128B
:1003D0007A20002A01308316AE000230AF0083126B
:1003E000B321002A8316B2011030B3008312FB2020
:1003F000002A01308316B2002D08B3008312FB20BF
:1004000008000B088316A00083128B1383160317B2
:100410008C170C14000000000313A01F122A831273
:100420008B178316831203170C087F390319732A5D
:1004300083160313A000831203170D0883160313FA
:10044000A100831203170F0883160313A2002008CC
:10045000AD008312C72183162108831203178D0074
:10046000831603132208831203178F0003130B084C
:100470008316A30083128B13831603178C170C1497
:10048000000000000313A31F482A83128B17831652
:10049000831203170C0D0E0D7F390319732A83166F
:1004A0000313A000831203170D0883160313A10082
:1004B000831203170F0883160313A2002008AD0050
:1004C0008312C72183162108831203178D00831618
:1004D00003132208831203178F008D0A03198F0A52
:1004E0000313012A0317031308008316A501A301B0
:1004F0000A30A400A20120082104031D822A003032
:10050000F800752B2508A50A2007840083132118FD
:1005100083170008A60026082D3C031D9B2A0130E6
:10052000A3002508A50A2007840083132118831738
:100530000008A600A82A26082B3C031DA82A250887
:10054000A50A200784008313211883170008A6003A
:1005500026082F3C03186B2B2608393C031C6B2BF9
:100560002608303C031DD42A250820078400831365
:10057000211883170008783C0319C82A250820078A
:1005800084008313211883170008583C031DD42AC4
:100590001030A400A50A2508A50A200784008313AB
:1005A000211883170008A60024080A3C031D192BF4
:1005B00026082F3C0318182B2608393C031C182B3F
:1005C0000A30A7002208A800F701F8012708031045
:1005D0002818F707F70CF80CA818F707F70CF80C11
:1005E0002819F707F70CF80CA819F707F70CF80CFF
:1005F000281AF707F70CF80CA81AF707F70CF80CED
:10060000281BF707F70CF80CA81BF707F70CF80CDA
:100610007808A700303026022707A2002508A50A7F
:10062000200784008313211883170008A600D82A06
:100630006B2B2408103C031D6B2B2608603C031811
:10064000282B26087A3C031C282B2608DF39292B67
:100650002608A60026082F3C0318322B2608393C12
:1006600003183A2B2608403C03186B2B2608463CFF
:10067000031C6B2B26082F3C03184B2B2608393CF8
:10068000031C4B2B220EA700F030A70530302602AA
:100690002707A200542B220EA700F030A7054130F7
:1006A00026020A3E2707A2002508A50A2007840083
:1006B0008313211883170008A6002608603C03183E
:1006C000682B26087A3C031C682B2608DF39692B27
:1006D0002608A6002A2B230B732B24080A3C031D93
:1006E000732BA209A20A2208F80083128A150A12A3
:1006F000F82A10308316A400F701FA01A10CA00C0F
:10070000031C882B2208F7070318FA0A2308FA07A4
:10071000FA0CF70CF90CF80CA40B7E2B83128A153B
:100720000A12092B83162F080319032CB70033086C
:100730000319032CB7070318A42B7F30B702031C3F
:10074000032C0319032CA82B8130B7070318032CA3
:100750003708F700F801F901FA013008BB00BB17B0
:100760003108BA003208B9001830B700B801391C96
:10077000D12B3608FA07031CC32BF90A031DC32B20
:10078000F80A0319B8173508F907031CCA2BF80A29
:100790000319B8173408B100B1173108F807031866
:1007A000B817B80DF80CF90CFA0CBB0CBA0CB90C54
:1007B0000310B70BB62B0130F7070318032CF81BF7
:1007C000E82BBB0DFA0DF90DF80DF7030319032CF7
:1007D000BB1FF92BFA0A031DF92BF90A031DF92B8C
:1007E000F80A031DF92BF80CF90CFA0CF70A031997
:1007F000032C3008B8003408B806B81F012CF817CD
:10080000072CF813072CF701F801F901FA018312FC
:1008100008008E30F70083163408F8003308F9001A
:10082000FA01F808031D1E2C7908F800F9010830B8
:10083000F702F808031D1E2CF701262C0310F81BE5
:10084000252CF90DF80DF7031E2CF8138312080060
:10085000831633080319EE2CBF0037080319EE2C5A
:10086000BF02031C382C7F30BF070318EE2C3E2C30
:100870008130BF02031CEE2C0319EE2C3F08F70059
:10088000F801F901FA01BE013408BD00BD173508B1
:10089000BC003608BB001930BF003A08BB02031881
:1008A000612C0130BC020318612CBD020318612CBD
:1008B000BE020318612CBE0ABD0ABC0A3A08BB0777
:1008C000932C3908BC0203187C2C0130BD0203189C
:1008D0007C2CBE0203187C2CBE0ABD0A3908BC075A
:1008E0003A08BB07031C932CBC0A031D932CBD0ABA
:1008F000031D932CBE0A932C38088038BD020318C0
:10090000922C0130BE020318922CBE0A380880389F
:10091000BD073908BC07031C702CBD0A031D702CD1
:10092000BE0A702C7A14BF0B962CA12C0310BB0DA1
:10093000BC0DBD0DBE0D0310FA0DF90DF80DC00D67
:100940004D2C401CA92C0310F80CF90CFA0CC00C0F
:10095000AC2CF7030319EE2CC01BD52C0310BB0DD8
:10096000BC0DBD0DBE0D3A08BB020318C12C0130F1
:10097000BC020318C12CBD020318C12CBE02031C0B
:10098000E42C3908BC020318CC2C0130BD0203183A
:10099000CC2CBE02031CE42C38088038BD0203189E
:1009A000D52C0130BE02031CE42CFA0A031DE42CF2
:1009B000F90A031DE42CF80A031DE42CF70A0319B5
:1009C000EE2CF80CF90CFA0C3408BF003808BF06FE
:1009D000BF1FEC2CF817F22CF813F22CF701F801DA
:1009E000F901FA01831208008030831CFA2C831667
:1009F000B80683128316BD01BE013408BC00380856
:100A0000BC0633080319E82DBB00F70037080319AB
:100A1000F12DBB0203198D2D031C4B2D3808C1008D
:100A2000C1173908C0003A08BF00BE010310C10C4D
:100A3000C00CBF0CBE0CBB0B152DBC1F222D3D14D2
:100A4000052E3D103B103D16B630840083131A2E40
:100A50003D12BC1B352D3B1C402DC10CC00CBF0CE6
:100A6000BE0CF70A0319002E402DC11B432D0310A5
:100A7000BE0DBF0DC00DC10DF7030319002E352D9E
:100A80003D17AD2D3D133408BC00BC1F492DC117C7
:100A9000F92DC113F92D3708BB00F7003308BB024D
:100AA0003408C100C1173508C0003608BF00BE01B8
:100AB0000310C10CC00CBF0CBE0CBB0B572DBC1FD0
:100AC000642DBD14052EBD103B10BD16BA30840038
:100AD00083131A2EBD12BC1B772D3B1C822DC10C1B
:100AE000C00CBF0CBE0CF70A0319002E822DC11BCF
:100AF000852D0310BE0DBF0DC00DC10DF7030319E9
:100B0000002E772DBD17AD2DBD133808BC00BC1FBE
:100B10008B2DC117F92DC113F92D3808C100C1174C
:100B20003908C0003A08BF00BC1F9A2DC1133D15FB
:100B3000052E3D11BE013B10B630840083131A2EE2
:100B4000BC1BC32D3408BC003B1CAD2DC10CC00C1C
:100B5000BF0CBE0CF70A0319002EBE1FBE2DBF0A24
:100B6000031DBE2DC00A031DBE2DC10A031DBE2DCF
:100B7000C10CC00CBF0CF70A0319002E3D1B422DFF
:100B8000BD1B842DE22D8030C106C11FCB2D052E4B
:100B90003808BC00D82D3408BC00C108031DD82D6E
:100BA000C008031DD82DBF08031DD82DF701F92D4E
:100BB000C11BE22D0310BE0DBF0DC00DC10DF70B03
:100BC000D82D002EBC1FE62DC117F92DC113F92D0C
:100BD0003708F7003808C1003908C0003A08BF00DC
:100BE000F92D3308F7003408C1003508C000360875
:100BF000BF004108F8004008F9003F08FA00382E0D
:100C0000F701F801F901FA01382EBE01BF09C00948
:100C1000C109BE09BE0A031D132EBF0A031D132EF0
:100C2000C00A0319C10A3D18212DBD18632D3D19B5
:100C3000992DC82D0008BF07031C242EC00A031DD0
:100C4000242EC10A03193B1484030008C007031CA7
:100C50002C2EC10A03193B1484030008801F803A1C
:100C6000C10703183B143D1A282DBD1A6A2DA02D6B
:100C7000831208008316A701A601A5017F30A400F6
:100C8000AB01AA01A901A8012C14AC102C11AE01D2
:100C900020082104031D512EF701F801F901FA0182
:100CA0006C2F2E08AE0A20078400831321188317A7
:100CB0000008AD00AD080319282F2C1C712E2D083B
:100CC000203C0319712E2C102D082B3C031D6B2E7C
:100CD000AC101E2F712E2D082D3C031D712EAC144F
:100CE0001E2F2C187B2E2D082E3C031D7B2E2C191D
:100CF0007B2E2C151E2F2C181C2F2D082F3C031873
:100D00001C2F2D08393C031C1C2F3030AD022C1D2C
:100D1000E02E2708B2002608B1002508B0002408FC
:100D2000AF00B601B5012030B4008230B3008312A9
:100D300092237A088316A7007908A6007808A500F0
:100D40007708A400B4012D08B300831209247A089F
:100D50008316B2007908B1007808B0007708AF00B8
:100D60003208B6003108B5003008B4002F08B300CF
:100D70002708BA002608B9002508B8002408B700DB
:100D800083122824831083162B08B6002A08B50086
:100D90002908B4002808B3007A08BA007908B90015
:100DA0007808B8007708B7008312F4247A0883160D
:100DB000AB007908AA007808A9007708A8001B2FC3
:100DC000B201B1012030B0008230AF002B08B60074
:100DD0002A08B5002908B4002808B300831292231A
:100DE0007A088316B2007908B1007808B000770855
:100DF000AF00B4012D08B3008312092483108316B9
:100E00003208B6003108B5003008B4002F08B3002E
:100E10007A08BA007908B9007808B8007708B700EE
:100E20008312F4247A088316AB007908AA007808A4
:100E3000A9007708A8001E2F2C1C282F2E08AE0A08
:100E4000200784008313211883170008AD005A2E51
:100E5000AC1C432FB201B1018030B0007F30AF0035
:100E60002B08B6002A08B5002908B4002808B300EA
:100E7000831292237A088316AB007908AA007808B7
:100E8000A9007708A800220823040319642FAE08DC
:100E90000319592FAE0322088400831323188317E4
:100EA0002E0820078000840A210880000318800A89
:100EB000642F22088400831323188317840A2108CF
:100EC00080008403200880002808F7002908F80023
:100ED0002A08F9002B08FA008312080083162D084F
:100EE000B63CAD00FA012E08B100AE170310AE0CEF
:100EF000AF0CB00CFA0CF90CF80CF70CAD0B762F0C
:100F0000B11F8D2FF709F809F909FA09F70A031932
:100F1000F80A0319F90A0319FA0A83120800831858
:100F2000942FB53084008313F701F801F901FA0119
:100F30008316B501B601B701B80134083304320491
:100F400031040319D32F2030B9000310AD0DAE0DBD
:100F5000AF0DB00DB50DB60DB70DB80D3408380294
:100F6000031DBC2F33083702031DBC2F3208360285
:100F7000031DBC2F31083502031CCD2F3108B502EB
:100F80003208031C320FB6023308031C330FB702BA
:100F90003408031C340FB8020314F70DF80DF90DD3
:100FA000FA0DB90BA52F35088000840A3608800099
:100FB000840A37088000840A3808800083120800F9
:100FC0003E08840083133F18831783162D08800082
:0E0FD000840A80018312BE0A0319BF0A0800BA
:1010000004088316A5002408A70003192428230830
:10101000B2002208B1002108B0002008AF00B601DC
:10102000B5012030B4008230B3008A1183129223BC
:101030008A157A088316A3007908A2007808A1000F
:101040007708A000A70B07282308B0002208AF00EC
:101050002108AE002008AD008A1183126E278A1580
:101060007A088316A3007908A2007808A1007708FF
:10107000A000A31F4828A503A516A009A109A2093D
:10108000A309A00A0319A10A0319A20A0319A30AB2
:101090003B30AC009A30AB00CA30AA00A9010A303C
:1010A000A70024080319A50A8314A0308400831321
:1010B0002308B0002208AF002108AE002008AD00D0
:1010C0002C08B4002B08B3002A08B2002908B1008C
:1010D0008A1183128F278A157808F708031D87283D
:1010E0008316240A2702031D7728831287282508E0
:1010F00003198A280F392702031980280318CA28E0
:10110000A51BCA28251B8A282030C228831220301C
:101110008316A505A51E9C28A5122408031DA5035A
:101120007708A5002D30AD008A118312E0278A15BB
:1011300083162508F700A50124082702031DAE2801
:101140007708A5002E30AD008A118312E0278A159A
:1011500083162508F7002030A50500303030A51E85
:10116000C228A5122408031DA5037708A5002D3069
:10117000AD008A118312E0278A1583162508F7002F
:10118000A5013030F7077708AD008A118312E027F8
:101190008A15831683102C08B0002B08AF002A088C
:1011A000AE002908AD00B401B301B2010A30B100AC
:1011B0008A1183128F278A157A088316AC00790862
:1011C000AB007808AA007708A900A70B542883125F
:1011D0008A150A12E52C0B088316A10083128B13C3
:1011E000831603178C170C14000000000313A11FB3
:1011F000FC2883128B1783160318372983120317D1
:101200000C087F3983160313A100831203170D08FE
:1012100083160313A200831203170F088316031308
:10122000A3002108AD008A118312C7218A158316F5
:101230002208831203178D008316031323088312D9
:1012400003178F0003130B088316A40083128B135C
:10125000831603178C170C14000000000313A41F3F
:10126000342983128B178316A00B37296729831221
:1012700003170C0D0E0D7F3983160313A100831283
:1012800003170D0883160313A200831203170F0818
:1012900083160313A3002108AD008A118312C7210E
:1012A0008A1583162208831203178D0083160313F1
:1012B0002308831203178F008D0A03198F0A031066
:1012C00083160313A00B652967298312EB28831269
:1012D0008A150A12002D04088316A5002408A70009
:1012E00003198F292308B2002208B1002108B00099
:1012F0002008AF00B601B5012030B4008230B30041
:101300008A11831292238A157A088316A30079081A
:10131000A2007808A1007708A000A70B7229230873
:10132000B0002208AF002108AE002008AD008A11ED
:1013300083126E278A157A088316A3007908A20003
:101340007808A1007708A000A31FB329A503A5165C
:10135000A009A109A209A309A00A0319A10A031956
:10136000A20A0319A30A3B30AC009A30AB00CA3082
:10137000AA00A9010A30A70024080319A50A8314AA
:10138000A030840083132308B0002208AF00210896
:10139000AE002008AD002C08B4002B08B3002A08CA
:1013A000B2002908B1008A1183128F278A157808A4
:1013B000F708031DF2298316240A2702031DE229D8
:1013C0008312F22925080319F5290F392702031979
:1013D000EB290318352AA51B352A251BF5292030B2
:1013E0002D2A831220308316A505A51E072AA512D3
:1013F0002408031DA5037708A5002D30AD008A1130
:101400008312C7218A1583162508F700A501240831
:101410002702031D192A7708A5002E30AD008A1176
:101420008312C7218A1583162508F7002030A505E9
:1014300000303030A51E2D2AA5122408031DA50357
:101440007708A5002D30AD008A118312C7218A15B7
:1014500083162508F700A5013030F7077708AD009F
:101460008A118312C7218A15831683102C08B000B5
:101470002B08AF002A08AE002908AD00B401B30163
:10148000B2010A30B1008A1183128F278A157A08B7
:101490008316AC007908AB007808AA007708A90089
:1014A000A70BBF2983128A150A12152D800803196C
:1014B000732A8316A1010408A0002110831B2114A4
:1014C000000883120C1E622A9900831620088400EB
:1014D000831321188317840A031D712A8312850A36
:1014E00083168312562A8A150A12192D03081F39EA
:1014F0008300813083169900A630980090308312C3
:101500009800BF01BE0183161F149F141F159F1161
:1015100007309C0083138312AB01AC0100308316AB
:1015200088008A1183125F298A150C308316AD005A
:101530008A118312C7218A1501308316AE00AF00CD
:101540008A118312B3218A156D3003178D00003084
:101550008F008A11031301228A15C0308B04831671
:101560008C168312C301C2014830C1008530C0000F
:10157000C701C6012030C5008330C400CB01CA01B9
:10158000C9017F30C8000A30CF00D730CE002330E9
:10159000CD007830CC00D301D201D101D001D701E8
:1015A000D601D501D401DB01DA01D901D801DF016F
:1015B000DE01DD01DC01E301E201E101E001E7011F
:1015C000E601E501E401EB01EA01E901E801FC01C2
:1015D000FB01FE010A30FD00310B112BB208031D87
:1015E000112B8316A1013330A0008A118312752AB2
:1015F0008A15FA017808FD007A08FE007E08831635
:10160000A1007D08A000A3016430A2008A1183120A
:10161000792B8A157908FE007808FD00B1010130A8
:10162000B200310B2A2B320B2A2B8316A101333047
:10163000A000A301A2018A1183123A268A157A0812
:10164000D3007908D2007808D1007708D000B10122
:101650000230B200310BC52C3208023C031DC52CF0
:101660008316A1013330A000A301A2018A118312C5
:101670003A268A157A08DB007908DA007808D9005A
:101680007708D8000130FB070318FC0A0230B100CC
:10169000831453088316B600831252088316B500CC
:1016A000831251088316B400831250088316B300C6
:1016B00083125B088316BA0083125A088316B90096
:1016C000831259088316B800831258088316B7008E
:1016D0008A118312F4248A157A08E7007908E60053
:1016E0007808E5007708E400831467088316B600DD
:1016F000831266088316B500831265088316B4004A
:10170000831264088316B300831263088316BA0039
:10171000831262088316B900831261088316B80029
:10172000831260088316B7008A118312F4248A1585
:101730007A088316A3007908A2007808A100770828
:10174000A0002308B6002208B5002108B400200834
:10175000B30083124F088316BA0083124E08831613
:10176000B90083124D088316B80083124C08831603
:10177000B7008A11831228248A157A08EB007908A9
:10178000EA007808E9007708E80067088316B200E5
:10179000831266088316B100831265088316B000B1
:1017A000831264088316AF0083124F088316B600B5
:1017B00083124E088316B50083124D088316B400B9
:1017C00083124C088316B3008A11831292238A1560
:1017D00083105F088316B60083125E088316B50077
:1017E00083125D088316B40083125C088316B3006D
:1017F0007A08BA007908B9007808B8007708B70005
:101800008A118312F4248A157A08DF007908DE0031
:101810007808DD007708DC006708E3006608E2006E
:101820006508E1006408E00043088316B2008312F3
:1018300042088316B100831241088316B000831258
:1018400040088316AF00831267088316B600831220
:1018500066088316B500831265088316B4008312E8
:1018600064088316B3008A11831292238A157A08BA
:101870008316A3007908A2007808A1007708A000C9
:10188000831247088316B200831246088316B100FC
:10189000831245088316B000831244088316AF00F4
:1018A00083125F088316B60083125E088316B500A4
:1018B00083125D088316B40083125C088316B3009C
:1018C0008A11831292238A15831083162308B60087
:1018D0002208B5002108B4002008B3007A08BA0035
:1018E0007908B9007808B8007708B7008A11831220
:1018F000F4248A157A088316A3007908A2007808D0
:10190000A1007708A00083124B088316B20083124F
:101910004A088316B100831249088316B000831267
:1019200048088316AF0083126B088316B600831233
:101930006A088316B500831269088316B4008312FF
:1019400068088316B3008A11831292238A158310C4
:1019500083162308B6002208B5002108B400200829
:10196000B3007A08BA007908B9007808B800770897
:10197000B7008A118312F4248A157A08D7007908EF
:10198000D6007808D5007708D4003108023C031D42
:10199000222D3208023C031D222DBF016C30BE00F7
:1019A0008930840057088316A300831256088316D3
:1019B000A200831255088316A100831254088316CF
:1019C000A0000330A400831200280C308316AD0061
:1019D0008A118312C7218A1501308316AE00AF0029
:1019E0008A118312B3218A15713003178D000030DC
:1019F0008F000310043083160313A0008312EB281A
:101A00008930840057088316A30083125608831672
:101A1000A200831255088316A1008312540883166E
:101A2000A0000330A40083126B296C308400831360
:101A3000562A0D300C1E1A2D99000A300C1E1E2D30
:101A40009900B1017D087B02031D612D7E087C0297
:101A5000031D612D0C308316AD008A118312C7213E
:101A60008A1501308316AE00AF008A118312B321AC
:101A70008A15763003178D0000308F008A1103130A
:101A800001228A15D301D201D101D001D701D6019B
:101A9000D501D401DB01DA01D901D801DF01DE0172
:101AA000DD01DC01E301E201E101E001E701E60122
:101AB000E501E401EB01EA01E901E801B201FC0101
:061AC000FB01EC2A6300AB
:02400E00333F3E
:00000001FF
;PIC16F877A
;CRC=1AA0  CREATED="15-Apr-24 12:33"
